:020000040800F2
:10000000504D002001010008992500083B240008FC
:100010003D2400088B080008B935000800000000E6
:10002000000000000000000000000000B72F0008E2
:100030008F08000800000000B92D000817300008E4
:100040001B0100081B0100081B0100081B01000820
:100050001B0100081B0100081B0100081B01000810
:100060001B0100081B0100081B0100081B01000800
:100070001B0100081B0100081B0100081B010008F0
:100080001B0100081B0100081B0100081B010008E0
:100090001B0100081B0100081B0100081B010008D0
:1000A0001B0100081B0100081B0100081B010008C0
:1000B0001B0100081B0100081B0100081B010008B0
:1000C0001B0100081B0100081B0100081B010008A0
:1000D0001B0100081B0100081B0100081B01000890
:1000E0001B0100081B0100081B010008DFF80CD0F1
:1000F00000F00CFB00480047153F0008504D002061
:100100000648804706480047FEE7FEE7FEE7FEE7B1
:10011000FEE7FEE7FEE7FEE7FEE7FEE71930000830
:10012000ED000008202A04DB203A21FA02F0002129
:10013000704721FA02F3D040C2F1200291400843F7
:1001400019467047D2B201E000F8012B491EFBD2DC
:1001500070470022F6E710B513460A4604461946D2
:10016000FFF7F0FF204610BD80EA010210B502F053
:100170000043400022D04A001FD0010E01EB126163
:10018000C0F35600C2F3560240F4000042F40002ED
:10019000A0FB022000047F39140400D0401C50EA68
:1001A000124001D44000491EC2B20C0604EBD0102C
:1001B000401C4008802A02D003E0002010BD20F03F
:1001C0000100002900DA0020184310BD30B480EA95
:1001D000010202F0004530F0004221F0004013D04F
:1001E00090B1C30DD40DC2F31601C0F31600E41A8A
:1001F00041F4000140F400027D34914201D3641CBB
:1002000000E04900002C02DA30BC002070474FF4B7
:1002100000000023914201D3891A034340084FEAAA
:100220004101F7D151B1914202D14FF0004105E0B7
:1002300002D24FF0010101E06FF0010103EBC45065
:10024000284430BC00F073B896230022114600F019
:1002500077B820F00040C10DC0F3160040F4000054
:100260007F2901DA00207047962903DCC1F196014D
:10027000C840704796398840704700F0004230F01F
:1002800000400AD0C10D01F56071C0F3160042EACA
:100290000151C208400711437047002001467047D2
:1002A00030B50B46014600202022012409E021FA46
:1002B00002F59D4205D303FA02F5491B04FA02F543
:1002C0002844151EA2F10102F1DC30BD2DE9F05FDA
:1002D0000546002092469B468846064681464024B5
:1002E0001BE02846414647462246FFF71BFF534680
:1002F0005A46C01A914110D311461846224600F0C2
:1003000017FA2D1A67EB01084F46224601200021FB
:1003100000F00EFA17EB00094E41201EA4F1010473
:10032000DFDC484631462A464346BDE8F09F0029B7
:10033000A8BF7047401C490008BF20F0010070476B
:1003400010B4B0FA80FC00FA0CF050EA010404BFCB
:1003500010BC704749B1CCF1200421FA04F411FA21
:100360000CF118BF012121430843A3EB0C01CB1D65
:100370004FEA00614FEA102042BF002010BC7047D6
:1003800000EBC35010440029A4BF10BC7047401CB0
:10039000490008BF20F0010010BC70472DE9FE4F56
:1003A000804681EA0300C00F0C46009021F0004116
:1003B00023F00045B8EB0200A94105D24046214692
:1003C00090461C460B46024623F00040104347D09F
:1003D000270DC7F30A00C3F30A510290401A019097
:1003E00040286BDAC3F3130040F4801B0098924658
:1003F00020B10023D2EB030A63EB0B0B01985946A3
:10040000C0F14002504600F093F906460D465046B2
:100410005946019A00F09BF910EB08006141002455
:1004200087EA115284EAE7731A4340D0009A62B314
:10043000019A012A4FEA075215DC001B61EB020109
:100440004FF0004202EA0752CDE90042001C41F59C
:10045000801132462B4600F09BF903B0BDE8F08FC7
:1004600040462146F9E7001B61EB0201001C41F503
:10047000801300185B412018A2F5001747EB030119
:1004800040EAD570B6196D4111E06D084FEA3606A5
:1004900045EAC0754FEA0752001B61EB0201001CE0
:1004A00041F5801149084FEA3000001951413246A8
:1004B0002B4603B0BDE8F04F00F05BB90098012275
:1004C00040000023D0EB020263EBE073009821466A
:1004D0004FEAE074B8EB000061EB0401E9E783F058
:1004E00000435BE781F0004158E72DE9FE4F81EAC8
:1004F000030404F0004421F0004100944FF0000B8D
:1005000023F0004350EA01045ED052EA03045BD0BA
:10051000C3F30A54C1F30A552C44A4F2F3340194F2
:10052000A0FB0254C1F3130141F48011C3F3130380
:1005300043F4801301FB024400FB034E840A970A34
:1005400044EA815447EA8357A4FB076802958D0A61
:1005500005FB07854FEA932C04FB0C542705029DED
:100560004FEA065847EA1637B5EB08056EEB070C5D
:10057000870E920E47EA811742EA8312A7FB020117
:10058000B6EB0B0164EB00042B0D43EA0C335E1851
:1005900044EB1C50DA465146E7FB0201C5F3130455
:1005A0004FEA0B3343EA14534FEA0432019C43EA07
:1005B0000603A4F10C040294009CCDE900B400F001
:1005C000E7F803B0BDE8F08F00200146F9E72DE918
:1005D000F04D81EA030404F0004B21F0004514467D
:1005E0004FF0000A23F0004150EA050220D054EAFF
:1005F00001021DD0C5F30A570246C5F31303C1F328
:100600001300C1F30A5640F4801543F48013A7EB9E
:100610000608101BD64608F2FD3873EB050002D31E
:1006200008F1010801E092185B41B8F1000F03DA0C
:1006300000200146BDE8F08D00204FF480110646F1
:1006400084460EE0171B73EB050705D3121B63EB03
:10065000050306434CEA010C49084FEA30009218A2
:100660005B4150EA0107EDD152EA030012D082EA61
:10067000040083EA0501084305D0101BAB4106D2F4
:100680000122002306E000224FF0004302E06FF059
:10069000010253101AEB06004CEB085110EB0A0054
:1006A00041EB0B01BDE8F04D00F063B8C1F30A5215
:1006B000C1F3130140F2FF3341F480119A4202DA90
:1006C00000200146704740F233439A42A2F233427F
:1006D00002DC5242FFF726BD00F02AB830B5041EF6
:1006E00071F1000404DB4FF00044404264EB01016F
:1006F000141E73F1000405DB1C464FF00043524208
:1007000063EB0403994208BF904230BD064C074D8D
:1007100006E0E06840F0010394E8070098471034D1
:10072000AC42F6D3FFF7E6FC983F0008B83F00085C
:10073000202A04DB203A00FA02F1002070479140A1
:10074000C2F1200320FA03F3194390407047202A96
:1007500006DBCB17203A41FA02F043EAE07306E0E9
:1007600041FA02F3D040C2F12002914008431946F9
:10077000704710B5141E73F1000408DA401C41F1F3
:10078000000192185B411A4301D120F0010010BD15
:100790002DE9F04D92469B4611B1B1FA81F202E08B
:1007A000B0FA80F220329046FFF7C2FF04460F46AF
:1007B00040EA0A0041EA0B0153465A46084313D067
:1007C000114653EA010019D0C8F140025046FFF724
:1007D000A9FC05460E46504659464246FFF7A8FF7B
:1007E000084305D0012004E020463946BDE8F08DDD
:1007F0000020054346EAE0762C4337430A98630518
:10080000E40AA0EB08000022FD0A44EA47540A303B
:1008100002D500200146E9E7010510196941DDE92B
:10082000084500196941BDE8F04DA2E770B58D1883
:1008300010F8014B14F0030201D110F8012B231121
:1008400006D110F8013B03E010F8016B01F8016BD1
:10085000521EF9D1ABB110F8012B04F00C048A1A26
:100860000C2C03D0A2EB84129B1C08E010F8014B67
:10087000A2EB0422F8E712F8014B01F8014B5B1ED2
:10088000F9D5A942D4D3002070BD00BFFEE7704760
:1008900010B5044600204FF0E021086101F00CFA89
:1008A000E0080149086010BD1000002000214FF44D
:1008B0007A724243104B1B685A434FF0E0235A614F
:1008C00000229A611A46126942F001021A6100BFC1
:1008D0004FF0E022116901F001021AB101F48032F7
:1008E000002AF5D04FF0E02212694FF0E0231A61A0
:1008F00000229A617047000010000020254800681F
:100900000068C0F3001018B322480068406A22490A
:1009100008600846006818B10846006864280DD9C8
:1009200000201C49096848621B49086008460068A5
:1009300000EB800040001949086027E01648006875
:1009400000EB80000A21C1EB4000144908601DE063
:1009500010480068406A10490860084600680A2884
:100960000DD90A200B49096848620B4908600846FE
:10097000006800EB800040000849086006E0064877
:10098000006800EB800040000449086003480068EC
:1009900070470000B43B0020380B0020280B0020DB
:1009A00000B591B000BF3748806940F00400354978
:1009B00088610846806900F00400019000BF00BF14
:1009C00000200D900E900F90109002200D900020AE
:1009D0000E900F900DA92C4800F040FA01200D90C8
:1009E00000200E900F900DA9274800F037FA00BFA5
:1009F0002448C06940F001002249C8610846C06926
:100A000000F00100019000BF00BF242104A8FFF7FF
:100A1000A0FB0020029003904FF080401B4908602B
:100A2000002048600021194881604FF6FF71C160C5
:100A300000210161816101200490002005900120C6
:100A40000690002007900A200890002009900120BD
:100A50000A9000200B900A200C9004A90B4801F08A
:100A60008DFA00200290039002A9084801F08CF949
:100A70003C21064801F0D8FA002004490968486280
:100A800011B000BD0010024000080140B43B00203E
:100A900008B5FFF733FF2849086008460068274972
:100AA0000968884243D03C21254801F0E4FA2248F5
:100AB00000686421B0FBF1F03030224908701E4814
:100AC00000686421B0FBF1F201FB12000A21B0FBC7
:100AD000F1F030301B494870174800686421B0FBC2
:100AE000F1F201FB12000A21B0FBF1F201FB12004E
:100AF000303014498870012013A310220021009087
:100B0000182001F079FE012010230E4A19460090AA
:100B1000302001F02FFF012010230EA21946009073
:100B2000482001F027FF3C21054801F07DFA0248EA
:100B300000680249086008BD300B0020340B00201B
:100B4000B43B00202C0B0020CBD9B6C8B0D9B7D607
:100B5000D6B500002500000000B591B000BF3548B3
:100B6000806940F00400334988610846806900F0DC
:100B70000400019000BF00BF00200D900E900F9068
:100B8000109040200D9000200E900F900DA92A4843
:100B900000F064F980200D9000200E900F900DA9B8
:100BA000254800F05BF900BF2248C06940F0020010
:100BB0002049C8610846C06900F00200019000BFEA
:100BC00000BF242104A8FFF7C4FA0020029003907C
:100BD0001A481B49086000204860002118488160BD
:100BE0004FF6FF71C1600021016181610120049015
:100BF0000020059001200690002007900620089014
:100C00000020099001200A9000200B9006200C90F3
:100C100004A90B4801F0B2F900200290039002A948
:100C2000074801F0B1F83C21054801F0FDF911B089
:100C300000BD000000100240000801400004004018
:100C4000F43F002038B500F08FF805463C49FFF727
:100C50008BFA0446FFF7FDFA3A4908600846006837
:100C600039490968884265D0364800683749B0FB81
:100C7000F1F03030364908703248006842F21071A5
:100C8000B0FBF1F00A21B0FBF1F201FB12003030B1
:100C90002F4948702B4800684FF47A71B0FBF1F08F
:100CA0000A21B0FBF1F201FB1200303028498870B4
:100CB000244800686421B0FBF1F00A21B0FBF1F296
:100CC00001FB120030302249C8702E2008711D48E7
:100CD00000680A21B0FBF1F0B0FBF1F201FB120059
:100CE00030301B494871174800686421B0FBF1F2AD
:100CF00001FB12000A21B0FBF1F201FB12003030BF
:100D000013498871012013A3102220210090084666
:100D100001F072FD012010230D4A302100900C20BB
:100D200001F028FE012010230DA230210090482060
:100D300001F020FE034800680349086038BD000048
:100D40000000C8425816002064160020A08601004A
:100D50005C160020B5B1C7B0D7AACBD900000000FF
:100D6000722F6D696E00000070B52F480068006931
:100D700000F00100002853D02B4801F05FF83C211F
:100D80002A4801F078F96FF00100274909680861E5
:100D900026480068406A26490880244800680068A0
:100DA000C0F30010234908700846007801280FD1CD
:100DB0001F4800884FF6FF71081A1D490880084631
:100DC00000884FF6FF71884202D100201849088040
:100DD00017480088FFF738FA06461749FFF7F6F973
:100DE00005464FF08041FFF7F1F904461349FFF73C
:100DF000BBF91349086008460068FFF73EFA04464D
:100E000022460B460FA002F0D9FB002007490968D3
:100E10004862054800F0FDFF3C21044801F004F958
:100E20000748006870BD000074480020F43F0020AF
:100E30005016002052160020000030410000704281
:100E400054160020B5B1C7B0D7AACBD93A20252E69
:100E50003266722F6D696E0D0A2000002DE9F84789
:100E60000346002294466EE14FF0010808FA02F4AE
:100E7000D1F8008008EA0400A0427DD1DFF8DCA2AE
:100E8000D1F80480A8EB0A09D0453AD014DCB8F1B7
:100E9000030F50D009DCB8F1000F31D0B8F1010FC9
:100EA0001CD0B8F1020F49D120E0B8F1110F18D0D1
:100EB000B8F1120F42D11EE0B9F5881F25D006DC2B
:100EC000B9F5803F20D0B9F5801F37D11AE0B9F5C8
:100ED000001F18D0B9F5041F30D117E0D1F80CC0AD
:100EE0002DE0D1F80C8008F1040C28E0D1F80C803A
:100EF00008F1080C23E0D1F80C8008F10C0C1EE07E
:100F000000BF00BF00BF00BF00BF00BFD1F8088016
:100F1000B8F1000F02D14FF0040C0BE0D1F80880BB
:100F2000B8F1010F03D14FF0080C1C6102E04FF043
:100F3000080C5C6103E04FF0000C00E000BF00BF54
:100F4000FF2801D8984601E003F104084646FF282F
:100F500002D84FEA820803E0A2F108084FEA8808A5
:100F60004746D6F800804FF00F0909FA07F928EA3A
:100F700009080CFA07F900E088E048EA0908C6F811
:100F80000080D1F8048008F08058B8F1805F7DD1EE
:100F900000BFDFF8CC81D8F8188048F00108DFF8EE
:100FA000C091C9F81880C846D8F8188008F0010820
:100FB000CDF8008000BF00BF4FEAB9384FEA920970
:100FC00058F829504FEA82784FEA18794FF00F0805
:100FD00008FA09F825EA0805DFF88881434502D1B7
:100FE0004FF0000816E0DFF88081434502D14FF052
:100FF00001080FE0DFF87481434502D14FF0020889
:1010000008E0DFF86C81434502D14FF0030801E0AE
:101010004FF004084FEA82794FEA197908FA09F883
:1010200048EA0505DFF84C814FEA920948F8295053
:10103000D1F8048008F48038B8F5803F0AD1DFF891
:101040003881D8F8008048EA0008DFF82C91C9F808
:10105000008009E0DFF82081D8F8008028EA000845
:10106000DFF81491C9F80080D1F8048008F4003842
:10107000B8F5003F10D1DFF8008108F10408D8F876
:10108000008048EA0008DFF8F09000E05AE009F13B
:101090000409C9F800800DE0DFF8DC8008F10408DD
:1010A000D8F8008028EA0008DFF8CC9009F104099C
:1010B000C9F80080D1F8048008F48018B8F5801FC2
:1010C0000ED1DFF8B48008F10808D8F8008048EAAB
:1010D0000008DFF8A49009F10809C9F800800DE0C4
:1010E000DFF8948008F10808D8F8008028EA0008A2
:1010F000DFF8849009F10809C9F80080D1F804806C
:1011000008F40018B8F5001F0ED1DFF86C8008F164
:101110000C08D8F8008048EA0008DFF85C9009F174
:101120000C09C9F800800DE0DFF84C8008F10C08CC
:10113000D8F8008028EA0008DFF83C9009F10C0993
:10114000C9F80080521CD1F8008028FA02F8B8F1E2
:10115000000F7FF489AEBDE8F88700000000111091
:101160000010024000080140000C01400010014046
:101170000014014008000140000401400AB101616F
:1011800001E00B04036170470148006870470000EC
:101190000400002070B504460E4800784FF47A71C0
:1011A000B1FBF0F00C490968B1FBF0F5284600F0FE
:1011B00097FD08B1012070BD102C07D200222146F6
:1011C000501E00F00DF80548046001E00120F2E730
:1011D0000020F0E70C0000200000002008000020A4
:1011E0002DE9F05F80460D461646002702F0F6F91D
:1011F000074639462A46334601F00700C0F1070A80
:10120000BAF1040F02D94FF0040A01E0C0F1070A55
:10121000D14600F1040ABAF1070F02D24FF0000ADA
:1012200001E0A0F1030AD4464FF0010A0AFA09FAD4
:10123000AAF1010A0AEA020A0AFA0CFA4FF0010BB3
:101240000BFA0CFBABF1010B0BEA030B4AEA0B04A4
:101250002146404602F0CAF9BDE8F09F70B5044649
:101260000D460CB9012070BD5A48006800F0070017
:10127000A8420ED25748006820F00700284355497D
:1012800008600846006800F00700A84201D001206D
:10129000E9E7207800F0020002281DD1207800F054
:1012A0000400042805D14C48406840F4E0604A49F5
:1012B0004860207800F00800082805D146484068BA
:1012C00040F46050444948604348406820F0F000D2
:1012D000A168084340494860207800F0010078B3D5
:1012E0006068012806D13C48006800F4003090B9DD
:1012F0000120B8E76068022806D13748006800F08E
:10130000007040B90120AEE73348006800F00200E9
:1013100008B90120A7E73048406820F00300616861
:1013200008432D494860FFF72FFF064609E0FFF705
:101330002BFF801B41F28831884202D9032092E7BB
:1013400007E02548406800F00C006168B0EB810FB1
:10135000EDD12048006800F00700A8420ED91D48D2
:10136000006820F0070028431A4908600846006812
:1013700000F00700A84201D0012074E7207800F0B7
:101380000400042807D11448406820F4E060E168B4
:10139000084311494860207800F00800082808D167
:1013A0000D48406820F46050216940EAC1000A49B4
:1013B000486000F03FF808494968C1F30311074A43
:1013C000515CC8400649086006480068FFF7E2FE25
:1013D000002048E70020024000100240803F000843
:1013E000000000200800002001480068704700004D
:1013F0000000002000B5FFF7F7FF04494968C1F37A
:101400000221034A515CC84000BD000000100240A8
:10141000903F000800B5FFF7E7FF04494968C1F3B2
:10142000C221034A515CC84000BD000000100240C8
:10143000903F0008F0B585B00FF26C0C9CE8E0100E
:1014400001A8A0E8E0101CA52D680095002100224D
:10145000002300240020194D696801F00C05F5B146
:10146000042D02D0082D19D101E0154819E001AD75
:10147000C1F38346AC5D01F4803555B10F4D6D6805
:10148000C5F340451DF805200D4D6543B5FBF2F34E
:1014900002E00C4D04FB05F3184602E000BF0848CB
:1014A00000BF00BF05B0F0BD020304050607080930
:1014B0000A0B0C0D0E0F101001020000001002406C
:1014C00000127A0000093D00F8B504460CB901206D
:1014D000F8BD207800F00100002878D0F848406876
:1014E00000F00C0004280CD0F548406800F00C0017
:1014F000082811D1F248406800F48030B0F5803FF0
:101500000AD1EF48006800F4003000285FD060681E
:1015100000285CD10120DBE700BF6068B0F5803FA8
:1015200006D1E748006840F48030E549086028E0CB
:10153000606858B9E248006820F48030E0490860EB
:101540000846006820F4802008601AE06068B0F562
:10155000A02F0BD1DA48006840F48020D8490860F9
:101560000846006840F4803008600AE0D44800680B
:1015700020F48030D24908600846006820F48020BA
:10158000086000BF606888B1FFF7FEFD054606E011
:10159000FFF7FAFD401B642801D9032098E7C848EB
:1015A000006800F400300028F2D010E0FFF7ECFDF6
:1015B000054606E0FFF7E8FD401B642801D903203B
:1015C00086E7BF48006800F400300028F2D1207898
:1015D00000F00200022857D1B948406800F00C0022
:1015E00050B1B748406800F00C00082818D1B44842
:1015F000406800F4803098B9B148006800F00200FB
:1016000020B12069012801D0012061E7AC480068C1
:1016100020F0F800616940EAC100A949086033E0A0
:101620002069E8B10120A7490860FFF7ADFD054634
:1016300006E0FFF7A9FD401B022801D9032047E778
:101640009F48006800F002000028F2D09C48006823
:1016500020F0F800616940EAC1009949086013E090
:10166000002098490860FFF78FFD054606E0FFF768
:101670008BFD401B022801D9032029E79048006810
:1016800000F002000028F2D1207800F008000828BD
:101690002DD1A069B8B101208B490860FFF774FD16
:1016A000054606E0FFF770FD401B022801D9032024
:1016B0000EE78348406A00F002000028F2D00120C3
:1016C00001F07CFB13E000207F490860FFF75CFD20
:1016D000054606E0FFF758FD401B022801D903200C
:1016E000F6E67748406A00F002000028F2D1207840
:1016F00000F00400042873D100277148C06900F08D
:10170000805070B900BF6E48C06940F080506C498D
:10171000C8610846C06900F08050009000BF00BF5B
:1017200001276A48006800F48070B0B96748006813
:1017300040F4807065490860FFF726FD054606E025
:10174000FFF722FD401B642801D90320C0E65F4853
:10175000006800F480700028F2D000BFE068012823
:1017600006D15748006A40F001005549086227E059
:10177000E06858B95248006A20F0010050490862F8
:101780000846006A20F00400086219E0E0680528B5
:101790000BD14B48006A40F00400494908620846F2
:1017A000006A40F0010008620AE04548006A20F043
:1017B0000100434908620846006A20F004000862FC
:1017C00000BFE068A0B1FFF7DFFC054609E0FFF7C6
:1017D000DBFC401B41F28831884202D9032077E6C6
:1017E00022E03748006A00F002000028EFD012E043
:1017F000FFF7CAFC054608E0FFF7C6FC401B41F2B4
:101800008831884201D9032062E62D48006A00F041
:1018100002000028F0D1012F05D12948C06920F02D
:1018200080502749C86100BFE069C8B324484068B8
:1018300000F00C00082860D0E069022848D10020A0
:1018400020490866FFF7A0FC054606E0FFF79CFC70
:10185000401B022801D903203AE61948006800F02D
:1018600000700028F2D1206AB0F5803F07D11448FB
:10187000406820F40030A168084311494860D4E969
:10188000080108430E49496821F4741108430C49C2
:10189000486001200B490866FFF776FC054607E023
:1018A0003DE0FFF771FC401B022801D903200FE641
:1018B0000348006800F000700028F2D02FE000001C
:1018C000001002400000424280044242007000408A
:1018D000002014490866FFF757FC054606E0FFF7AD
:1018E00053FC401B022801D90320F1E50E48006893
:1018F00000F000700028F2D111E0E069012800D169
:10190000E6E50948466806F48031206A814204D140
:1019100006F47011606A814201D00120D8E50020F0
:10192000D6E50000000042420010024010B5044617
:101930000CB9012010BD606A00B900BFA06AB0F503
:10194000005F00D100BF94F8510028B9002084F84E
:101950005000204600F038F8022084F8510020683A
:10196000006820F0400021680860D4E901010843C4
:10197000E16808432169084361690843218B01F448
:1019800000710843E1690843216A0843A16A0843DA
:10199000216808600421A06901EA104021684860BC
:1019A000A06AB0F5005F02D12168E06A0861206892
:1019B000C06920F400602168C861002060650120D2
:1019C00084F851000020B5E770472DE9FF5F044619
:1019D000884691461D460E9E0120029000200190EF
:1019E00000BF94F85000012803D1022004B0BDE8E4
:1019F000F09F012084F8500000BFFFF7C5FB0746A9
:101A000094F851B060680390AA46BBF1010F0BD067
:101A10000398B0F5827F04D1A06810B9BBF1040F20
:101A200002D0022001903DE1B8F1000F03D0B9F1DE
:101A3000000F00D015B90120019033E194F8510056
:101A4000042802D0052084F8510000206065C4F805
:101A50003890E587A587C4F83080E586A5862064A0
:101A60006064A06AB0F5005F0DD100BF2068006817
:101A700020F40050216808602068006840F400509D
:101A80002168086000BF2068006800F0400040281E
:101A900005D02068006840F0400021680860E068D8
:101AA000B0F5006F56D1606810B1BAF1010F09D1DD
:101AB000206B00882168C860206B801C2063E08E4A
:101AC000401EE0863FE02068806800F002000228A7
:101AD0001CD1E08ED0B10298012817D1206B00886C
:101AE0002168C860206B801C2063E08E401EE08669
:101AF00000200290E08E48B9A06AB0F5005F05D1E1
:101B00002068006840F48050216808602068806880
:101B100000F0010068B1E08F58B12068C068A16B87
:101B20000880A06B801CA063E08F401EE08701202E
:101B30000290FFF729FBC01BB04204D3701C10B108
:101B400003200190AEE0E08E0028BCD1E08F002899
:101B5000B9D156E0606810B1BAF1010F09D1206B1C
:101B6000007821680873206B401C2063E08E401EC3
:101B7000E08640E02068806800F0020002281CD166
:101B8000E08ED0B10298012817D1206B007821682F
:101B90000873206B401C2063E08E401EE08600200E
:101BA0000290E08E48B9A06AB0F5005F05D12068C8
:101BB000006840F48050216808602068806800F068
:101BC000010068B1E08F58B12068C068A16B08704F
:101BD000A06B401CA063E08F401EE08701200290B4
:101BE000FFF7D2FAC01BB04201D3701C00B916B97E
:101BF0000320019056E0E08E0028BBD1E08F002842
:101C0000B8D1A06AB0F5005F10D133460122114669
:101C10002046009701F07BF930B1606D40F0020082
:101C20006065032001903DE02068C06820688068FE
:101C3000C0F30010E8B1204601F066F9012814D184
:101C4000606D40F00200606500BF2068006820F40D
:101C50000050216808602068006840F40050216846
:101C6000086000BF0120019003E04FF6EF7021688B
:101C700088603A463146204601F032F920B1012011
:101C80000190202060650DE0A06850B900BF0020E1
:101C900000902068C068009020688068009000BFB5
:101CA00000BF00BF012084F8510000BF002084F86D
:101CB000500000BF019899E6042808D14FF0E021B8
:101CC000096941F004014FF0E022116107E04FF093
:101CD000E021096921F004014FF0E0221161704711
:101CE00070B504462546681EB0F1807F01D30120FF
:101CF0000FE0681E4FF0E02148610F214FF0FF30E8
:101D000001F074FC00204FF0E02188610720086199
:101D1000002070BD10B50346002200BF93F83C00C0
:101D2000012801D1022010BD012083F83C0000BF32
:101D300022F0FF00CC6840EA040222F440708C6874
:101D400040EA040222F480604C6840EA040222F473
:101D500000600C6840EA040222F480500C6940EAFA
:101D6000040222F400504C6940EA040222F480404C
:101D7000CC6940EA04021868426400BF002083F87E
:101D80003C0000BF00BFCEE710B5024600BF92F88E
:101D90003C00012801D1022010BD012082F83C0046
:101DA00000BF022082F83D00106843681068846814
:101DB00023F070030868034324F080044868044358
:101DC0001068436010688460012082F83D0000BF05
:101DD000002082F83C0000BF00BFDDE710B50446DC
:101DE0000CB9012010BD94F83D0028B9002084F8FA
:101DF0003C00204600F00CF8022084F83D00211D34
:101E0000206801F077F9012084F83D000020E9E71F
:101E100070470146022081F83D000868806800F0A4
:101E20000702062A05D00868006840F001000B6828
:101E30001860012081F83D00002070470146022013
:101E400081F83D0000BF0868006A41F2111210409D
:101E500050B90868006A9210104028B908680068F4
:101E600020F001000A68106000BF012081F83D00E9
:101E7000002070472DE9F04104460D4600BF94F85C
:101E80003C00012802D10220BDE8F081012084F845
:101E90003C0000BF022084F83D002068866826F0E0
:101EA000770626F47F46206886602868502833D05D
:101EB0000CDC202850D004DC00284BD0102851D155
:101EC00049E0302849D040284CD139E060282DD055
:101ED000702807D0B0F5805F03D0B0F5005F41D126
:101EE0000DE040E0D5E902136A68206801F04DF981
:101EF0002068866846F077062068866033E0D5E97A
:101F000002136A68206801F040F92068806840F494
:101F100080402168886026E0EA686968206801F0EE
:101F200005FA5021206801F03BF91CE0EA68696875
:101F3000206801F00EFA6021206801F031F912E00A
:101F4000EA686968206801F0F1F94021206801F031
:101F500027F908E000BF00BF00BF2968206801F032
:101F60001FF900E000BF00BF012084F83D0000BF62
:101F7000002084F83C0000BF00BF85E72DE9F04158
:101F800004460D4614B90120BDE8F08194F83D00E7
:101F900028B9002084F83C00204600F044F80220D4
:101FA00084F83D002068806844F207018843216876
:101FB0008860211D206801F09DF82068D0F8088015
:101FC000206886692068076A286840EA080840F2A5
:101FD00003308643A969A86840EA0120064340F619
:101FE0000C4086434FF2F0008643E969E86840EA16
:101FF0000120064328690001296A40EA01300643AE
:1020000027F022076969686840EA011007432068E1
:10201000C0F808802068866120680762012084F883
:102020003D000020B0E7704730B504460D4615B1BD
:10203000042D0CD105E001220021206801F094F864
:1020400010E001220421206801F08EF80AE001224C
:102050000021206801F088F801220421206801F0A5
:1020600083F800BF00BF2068006840F001002168CD
:102070000860002030BD30B504460D4615B1042D72
:102080000CD105E000221146206801F06DF810E047
:1020900000220421206801F067F80AE000221146BE
:1020A000206801F061F800220421206801F05CF84A
:1020B00000BF00BF00BF2068006A41F21111084054
:1020C00050B92068006A8910084028B92068006863
:1020D00020F001002168086000BF002030BD70B50D
:1020E00004460D46164600BF94F83C00012801D175
:1020F000022070BD012084F83C0000BF022084F85B
:102100003D0036B1042E1BD0082E31D00C2E5ED1EE
:1021100045E02946206801F04DF82068806940F0CC
:102120000800216888612068806920F00400216827
:10213000886120688069296908432168886147E0CF
:102140002946206801F066F82068806940F4006044
:10215000216888612068806920F480602168886136
:1021600020688069296940EA0120216888612FE0A0
:102170002946206801F082F82068C06940F0080014
:102180002168C8612068C06920F004002168C86126
:102190002068C069296908432168C86118E0294698
:1021A000206801F09FF82068C06940F40060216851
:1021B000C8612068C06920F480602168C861206817
:1021C000C069296940EA01202168C86100E000BFB8
:1021D00000BF012084F83D0000BF002084F83C00CF
:1021E00000BF00BF85E710B504460CB9012010BD43
:1021F00094F83D0028B9002084F83C00204600F007
:102200000CF8022084F83D00211D206800F072FFC8
:10221000012084F83D000020E9E7704770B50446CE
:102220000E4601223146206800F09EFF0D492068CD
:10223000884201D1012000E0002028B12068406CD4
:1022400040F40040216848642068806800F0070579
:10225000062D05D02068006840F001002168086064
:10226000002070BD002C014010B504460CB90120BF
:1022700010BDA06900B100E000BF94F8390028B992
:10228000002084F83800204600F028F8242084F844
:1022900039002068C06820F400502168C8602046DA
:1022A00001F084F82068006920F4904021680861FA
:1022B0002068406920F02A00216848612068C068D1
:1022C00040F400502168C8600020E063202084F8BA
:1022D000390084F83A000020CAE700001FB5044620
:1022E00000BF1D48806940F004001B498861084612
:1022F000806900F00400039000BF00BF00BF0846E3
:10230000806940F4804088610846806900F480401C
:10231000039000BF00BF1149206888421AD10020F5
:102320000090019002900390022001900002009022
:102330000320039069460A48FEF790FD00200190B3
:102340004FF4806000900120029069460448FEF737
:1023500085FD00BF1FBD0000001002400038014095
:10236000000801402DE9F84304460D4616461F4675
:102370004FF0000994F8390020285CD105B116B956
:102380000120BDE8F88300BF94F83800012801D18E
:102390000220F6E7012084F8380000BF0020E06347
:1023A000212084F83900FEF7EFFE8146A684E684FA
:1023B0002BE0E08C401EE084A068B0F5805F16D171
:1023C0004B46002280212046009701F0BFF808B15B
:1023D0000320D6E7A846B8F80000C0F3080021683B
:1023E0004860206908B9AD1C0FE06D1C0DE04B463C
:1023F000002280212046009701F0A8F808B10320B0
:10240000BFE715F8010B21684860E08C0028D0D1A7
:102410004B46002240212046009701F097F808B172
:102420000320AEE7202084F8390000BF002084F8A4
:10243000380000BFA5E70220A3E7704700BFFEE712
:1024400000B597B000BF3B48806940F004003949AF
:1024500088610846806900F00400019000BF00BF59
:1024600000201390149015901690C8141390022019
:1024700014900320169013A92F48FEF7EFFC00BF1D
:102480002C48806940F400602A49886108468069C8
:1024900000F40060019000BF00BF00201190129076
:1024A0001C210AA8FDF755FE202102A8FDF751FEC8
:1024B00022482349086041F61F4048600021204817
:1024C00081606321C1600021016141618161FFF789
:1024D0008AFE1B48FFF782FC00201190129011A980
:1024E0001748FFF751FC60200A9000200B900C90D9
:1024F0000D900E900F9010900C220AA91048FFF733
:10250000EEFD0020029003900490059006904FF499
:10251000005007900020099002A90948FFF7FAFB34
:102520000748FFF776FC0C210548FFF777FE17B048
:1025300000BD00000010024000080140002C0140D6
:102540003444002010B5FEF7D9F90F4908600F4850
:102550000068096888420ED10C48006858B10C48E0
:10256000007858B9084800680A49096808640120D9
:102570000749087002E00020054908700248006819
:102580000249086010BD0000902C0020942C00200F
:10259000982C0020344400207047000070B50024BF
:1025A0001CE004F1B001C8B2002100F0E1FB002101
:1025B000084600F0DDFB0021102000F0D9FB0025CB
:1025C00008E0084901EBC411485D012100F0D0FB8F
:1025D000681CC5B2802DF4DB601CC4B2082CE0DBA3
:1025E00070BD0000744400202DE9F05F04460D46E4
:1025F00090469946A8EB040000F1010AA9EB0500FA
:1026000000F1010B00260EE0002708E0AA19D1B264
:10261000E219D0B20A9A00F0ADF8781CC7B257455B
:10262000F4D3701CC6B25E45EED3FFF7B7FFBDE82A
:10263000F09F000000B585B000BF0D48806940F0F4
:1026400008000B4988610846806900F00800009086
:1026500000BF00BF012002904FF460700190032082
:10266000049001A90348FEF7F9FB05B000BD000086
:1026700000100240000C014010B5012280213C48AE
:10268000FEF77CFD6420FEF711F900228021384816
:10269000FEF774FD6420FEF709F901228021344819
:1026A000FEF76CFD0021AE2000F062FB0021084621
:1026B00000F05EFB0021102000F05AFB00214020BA
:1026C00000F056FB0021B02000F052FB00218120D9
:1026D00000F04EFB0021FF2000F04AFB0021A1206A
:1026E00000F046FB0021A62000F042FB0021A820BC
:1026F00000F03EFB00213F2000F03AFB0021C82003
:1027000000F036FB0021D32000F032FB0021084608
:1027100000F02EFB0021D52000F02AFB00218020B4
:1027200000F026FB0021D92000F022FB0021F1203F
:1027300000F01EFB0021DA2000F01AFB002112201D
:1027400000F016FB0021DB2000F012FB00213020FE
:1027500000F00EFB00218D2000F00AFB0021142068
:1027600000F006FB0021AF2000F002FB10BD0000CE
:10277000000C0140F0B503461446012C1CD1CD17C6
:1027800001EB5575ED101B4E06EBC515ED5C0A46C9
:10279000CE1701EB5676F610A1EBC6070126BE4018
:1027A000F6B235430846CE1701EB5676F610114FB8
:1027B00007EBC616F5541BE0D4B9CD1701EB5575E0
:1027C000ED100C4E06EBC515ED5C0A46CE1701EB7D
:1027D0005676F610A1EBC6070126BE40B543084663
:1027E000CE1701EB5676F610024F07EBC616F554DE
:1027F000F0BD0000744400202DE9F04106460F466C
:1028000014461D46DDF8188023E0102C06D14346FF
:102810002A463946304600F0E3F810E0182C06D17D
:1028200043462A463946304600F050F907E0202C4E
:1028300005D143462A463946304600F0C9F93019D9
:10284000C6B2C4F18000B04202DA00263819C7B21D
:10285000AD1C28780028D8D1BDE8F0812DE9FF5FB4
:1028600006460F469946DDF838A04FF000080024D0
:10287000A34600250298203800F0FF087F2E02DDD5
:102880000026B81CC7B2B9F1100F35D1002430E0D2
:10289000BAF1010F05D1354800EB081010F804B06B
:1028A00009E0BAF1010F06D0304800EB0810005DD6
:1028B000C04300F0FF0B002517E0C5F1080101201F
:1028C000884000EA0B0038B13A19D1B27219D0B27F
:1028D0000122FFF74FFF06E03A19D1B27219D0B2C8
:1028E0000022FFF747FF681CC5B2082DE5DB601C1E
:1028F000C4B2102CCCDB34E0B9F1080F31D1002484
:102900002DE0BAF1010F05D1194800EBC80010F80D
:1029100004B006E0164800EBC800005DC04300F0BC
:10292000FF0B002517E0C5F108010120084100EA6E
:102930000B0038B13A19D1B27219D0B20122FFF7A7
:1029400019FF06E03A19D1B27219D0B20022FFF78E
:1029500011FF681CC5B2082DE5DB601CC4B2082C51
:10296000CFDBFFF71BFEBDE8FF9F00009930002082
:10297000C93500202DE9F84F0546884616461C4605
:10298000DDF828900027BA46102C05D1204604EB2C
:10299000D071C1F3470A08E0082C06D1204604EBA9
:1029A000D0714910891C01F0FF0A13E0CDF80090A6
:1029B000F25D234641462846FFF750FF05EB0A002B
:1029C000C5B2802D04DD002508EB040000F0FF08EF
:1029D000781CC7B2F05D0028E8D1BDE8F88F000090
:1029E0002DE9FF4F83B0804689469246082001902A
:1029F000002561E005EB0510334911F810009AF845
:102A00000010884256D105EB05102F4901EB40001C
:102A100040789AF8011088424CD1002448E006988A
:102A200040B105EB0510284901EB4000801C005D1A
:102A3000029009E005EB0510234901EB4000801CE2
:102A4000005DC043C0B2029000262DE080203041DE
:102A50000299084098B1274604EBD77209EB62024D
:102A6000D1B2A34604EBDB725210A4EB420208EB96
:102A7000C2023244D0B20122FFF77CFE12E02746A8
:102A800004EBD77209EB6202D1B2A34604EBDB720E
:102A90005210A4EB420208EBC2023244D0B2002230
:102AA000FFF768FE701CC6B2082ECFDB601CC4B2F4
:102AB000202CB4DB681CC5B2019885429ADBFFF775
:102AC0006DFD07B0BDE8F08FD13500202DE9FE4F38
:102AD0000746884691469B460120029000256DE0FE
:102AE00005EB850000EB4510384911F8100099F806
:102AF0000010884260D105EB850000EB451033499A
:102B000001EB4000407899F80110884254D100242C
:102B10004FE0BBF1000F0AD005EB850000EB45103C
:102B20002A4901EB4000801C10F804A00BE005EBE3
:102B3000850000EB4510254901EB4000801C005D3D
:102B4000C04300F0FF0A00262FE08020304100EA59
:102B50000A00A0B1032094FBF0F04044C0B2019001
:102B6000032094FBF0F100FB114007EBC000304460
:102B7000C0B2012200900199FFF7FCFD13E0032091
:102B800094FBF0F04044C0B20190032094FBF0F1BC
:102B900000FB114007EBC0003044C0B2002200909F
:102BA0000199FFF7E7FD701CC6B2082ECDDB601C53
:102BB000C4B2482CADDB04E0681CC5B20298854263
:102BC0008EDB00BFFFF7EAFCBDE8FE8FE136002098
:102BD0002DE9FF4F83B0804689469246012001903F
:102BE000002565E005EB8510354911F810009AF8CD
:102BF000001088425AD105EB8510314901EB4000A5
:102C000040789AF80110884250D100244CE0069890
:102C100040B105EB85102A4901EB4000801C005DA6
:102C2000029009E005EB8510254901EB4000801C6E
:102C3000005DC043C0B20290002731E080203841DF
:102C400002990840A8B12646E21704EB927209EBFC
:102C5000A202D1B2A346E21704EB92729210A4EB47
:102C6000820208EBC2023A44D0B20122FFF782FD91
:102C700014E02646E21704EB927209EBA202D1B2ED
:102C8000A346E21704EB92729210A4EB820208EBC7
:102C9000C2023A44D0B20022FFF76CFD781CC7B2E2
:102CA000082FCBDB601CC4B2802CB0DB681CC5B223
:102CB0000198854296DBFFF771FC07B0BDE8F08F05
:102CC0002B3700202DE9F84F8046894617469A4653
:102CD000DDF828B0002545E000243AE00B9850B11B
:102CE000F81DC11700EB5171C91005FB01411BF81C
:102CF000011000910BE0F81DC11700EB5171C910D4
:102D000005FB01411BF80110C943C9B2009100261F
:102D10001BE0802030410099084050B109EB0502CA
:102D2000D1B208EBC4023244D0B20122FFF722FD37
:102D300009E009EB0502D1B208EBC4023244D0B27B
:102D40000022FFF717FD701CC6B2082EE1DB601CE5
:102D5000C4B2F81DC11700EB5171B4EBE10FBDDB3C
:102D6000681CC5B25545B7DBFFF718FCBDE8F88F06
:102D700070B505460C4634B900224FF480710D48F9
:102D8000FEF7FCF906E0012C04D1012211020948EA
:102D9000FEF7F4F900224FF400710648FEF7EEF951
:102DA000284600F08BF8012251020248FEF7E6F9AE
:102DB00070BD0000000C01407047000008B50849D4
:102DC0000968C9084FF47A72B1FBF2F141430091EE
:102DD00000BF00BF00994A1E00920029F9D108BD2A
:102DE0000000002000B585B000BF3048C06940F445
:102DF00080402E49C8610846C06900F480400090B8
:102E000000BF00BF00BF0846806940F0080088612D
:102E10000846806900F00800009000BF00BF002055
:102E20000190029003900490022002900003019010
:102E30000320049001A91E48FEF710F8022002901A
:102E4000800301900320049001A91948FEF706F8B9
:102E50000220029040030190002003900320049080
:102E600001A91348FDF7FAFF1248134908604FF40F
:102E700082704860002110488160C1600161416139
:102E8000C16101624FF40071816100214162816280
:102E90000A21C162FEF74AFD07480068006840F059
:102EA000400005490968086005B000BD00100240F7
:102EB000000C014000380040F448002001B582B009
:102EC0004FF47A700123044A02A900900348FEF7E8
:102ED0007CFD014800780EBDAF370020F44800208B
:102EE000F8B504460D4616462B46002280212046A2
:102EF000009600F00CF828B1606D40F0200060658D
:102F00000320F8BD0020FCE70146012070472DE9B1
:102F1000F04104460E4617461D46DDF818803EE097
:102F2000681CD8B3FEF730F9A0EB0800A84200D225
:102F3000A5BB2068406820F0E00021684860606818
:102F4000B0F5827F0DD1A068B0F5004F03D0A06826
:102F5000B0F5806F05D12068006820F0400021683E
:102F60000860A06AB0F5005F0DD100BF206800685E
:102F700020F40050216808602068006840F4005088
:102F80002168086000BF012084F8510000BF0020C4
:102F900084F8500000BF0320BDE8F081FFE72068FF
:102FA00080683040B04201D1012000E00020B842EA
:102FB000B6D10020F0E7704710B590B0282106A8E0
:102FC000FDF7C7F8002008904FF4803007900120EB
:102FD0000A9009900C9006904FF4E0110F910104B3
:102FE0000E9102200D9006A8FEF76EFA04460CB171
:102FF00000BFFEE70F200190022002900020039006
:103000004FF48060049000200590022101A8FEF793
:1030100025F910B010BD70471148006840F001005C
:103020000F490860084640680E4908400C4948604E
:10303000084600680C4908400949086008460068CD
:1030400020F4802008600846406820F4FE004860B4
:103050004FF41F008860C8030449086070470000EF
:10306000001002400000FFF8FFFFF6FE08ED00E050
:1030700000B587B000BF1C48C06940F004001A4981
:10308000C8610846C06900F00400009000BF00BF9E
:103090000020039004900590069001900290134840
:1030A0001349086041F61F404860002110488160C4
:1030B00042F20F71C1600021016180218161FEF740
:1030C0008DFE4FF48050039003A90948FEF7D2FE0D
:1030D00000200190029001A90548FEF755FE044822
:1030E000FEF797FE07B000BD001002400008004048
:1030F0007448002010B50268184B984208D0B0F10F
:10310000804F05D0164B984202D0164B984203D1FF
:1031100022F070024B681A43104B984208D0B0F16D
:10312000804F05D00E4B984202D00E4B984203D1EF
:1031300022F44072CB681A4322F080034C6943EAC0
:10314000040202608B68C3620B688362034B98427F
:1031500001D10B6903630123436110BD002C0140C1
:10316000000400400008004030B501F01F050124B4
:1031700004FA05F3046A9C430462046A01F01F0523
:1031800002FA05F52C43046230BD30B50C46816867
:1031900021F47F4142EA032525432943816030BD64
:1031A0000A46816821F0700142F0070319438160EB
:1031B0007047000030B5056A25F001050562026A16
:1031C0004368846924F0700424F003040D682C43E0
:1031D00022F002028D682A430D4DA84206D100BF9D
:1031E00022F00802CD682A4322F00402084DA842CA
:1031F00007D123F4807323F400734D692B438D6949
:103200002B43436084614D684563026230BD00001A
:10321000002C014030B5056A25F010050562026AF0
:103220004368846924F4E04424F440740D6844EA5B
:10323000052422F020028D6842EA05120E4DA842B4
:1032400007D100BF22F08002CD6842EA051222F0C9
:103250004002094DA84209D123F4806323F400639E
:103260004D6943EA85038D6943EA850343608461C0
:103270004D688563026230BD002C014030B5056A9F
:1032800025F480750562026A4368C46924F07004FD
:1032900024F003040D682C4322F400728D6842EA86
:1032A00005220F4DA84207D100BF22F40062CD686D
:1032B00042EA052222F48062094DA84209D123F492
:1032C000805323F400534D6943EA05138D6943EAA3
:1032D00005134360C4614D68C563026230BD0000E0
:1032E000002C014030B5056A25F480550562036A5B
:1032F0004468C26922F4E04222F440720D6842EA56
:10330000052223F400538D6843EA0533064DA84295
:1033100004D124F480444D6944EA85144460C261B8
:103320004D680564036230BD002C014030B50B468A
:103330001446026A056A25F001050562816921F0DB
:10334000F00141EA041122F00A021A43816102628B
:1033500030BD30B50B461446056A25F010050562F0
:103360008169026A21F4704141EA043122F0A0022D
:1033700042EA03128161026230BD000010B50446CA
:103380000848094908600846446000210161C1609D
:1033900081600C21416100218161C161FEF764FF00
:1033A00010BD000000380140B448002070B504464C
:1033B0002168096921F44051E268114322681161D2
:1033C0002269A1681143626941EA02052168C9685E
:1033D00041F20C62914329432268D1602168496916
:1033E00021F44071A269114322685161564A216853
:1033F000914254D1FEF70EF800EBC00101EB001131
:1034000062689200B1FBF2F100EBC00202EB001225
:1034100063689B00B2FBF3F26423B2FBF3F202EBAE
:10342000C20303EB0212A1EB8201322202EB011173
:103430006422B1FBF2F101F0F00100EBC00202EBFB
:10344000001263689B00B2FBF3F26423B2FBF3F259
:1034500001EB021200EBC00101EB001163689B005D
:10346000B1FBF3F100EBC00303EB00136668B60099
:10347000B3FBF6F36426B3FBF6F303EBC30606EBEC
:103480000313A1EB8301322303EB01116423B1FB8E
:10349000F3F101F00F0111442268916053E0FDF750
:1034A000A9FF00EBC00101EB001162689200B1FBC3
:1034B000F2F100EBC00202EB001263689B00B2FB6A
:1034C000F3F26423B2FBF3F202EBC20303EB02124A
:1034D000A1EB8201322202EB01116422B1FBF2F175
:1034E00001F0F00100EBC00202EB001263689B00E8
:1034F000B2FBF3F26423B2FBF3F201EB021200EB36
:10350000C00101EB001163689B00B1FBF3F100EB1C
:10351000C00303EB00136668B600B3FBF6F3642642
:10352000B3FBF6F303EBC30606EB0313A1EB830136
:10353000322303EB01116423B1FBF3F101F00F011E
:1035400011442268916070BD003801402DE9F041BE
:1035500004460D4617469846069E21E0701CF8B1B9
:103560002EB1FDF711FEA0EB0800B04218D920687B
:10357000C06820F4D0702168C8602068406920F0DD
:10358000010021684861202084F8390084F83A005D
:1035900000BF002084F8380000BF0320BDE8F081A0
:1035A000206800682840A84201D1012000E00020E6
:1035B000B842D3D00020F1E700BFFEE70FB4054BBF
:1035C00010B503A9044A029800F0F6F810BC5DF8A3
:1035D00014FB0000E93E0008B037002002480068F4
:1035E000C0F30220704700000CED00E010B5002889
:1035F00004DB0A07130E054A135406E00A07140EEB
:10360000034A00F00F031B1FD45410BD00E400E078
:1036100018ED00E002E008C8121F08C1002AFAD124
:1036200070477047002001E001C1121F002AFBD142
:10363000704700002DE9FF5F82B00021DDE9043012
:10364000020DDDF840B0034318D044F61050A2F24A
:10365000FF3242431514119801281FD0A5EB0B002F
:10366000401C5FEA000A4FF000064E4FDFF8389129
:10367000B046504615D5CAF1000413E01198012454
:103680004AA3012801D16FEA0B010298119AC0E9FF
:103690000031C0E9024206B0BDE8F09FCBF1000066
:1036A000DFE704460021404A491842EB0450CDE9C7
:1036B000001012E0E00707D032463B46404649463C
:1036C000FCF713FF8046894632463B4610461946B2
:1036D000FCF70BFF06460F466410002CEAD1DDE92B
:1036E0000401DDE90023BAF1000F06DAFCF7FDFE64
:1036F00042464B46FCF7F9FE05E0FCF768FF424600
:103700004B46FCF764FF04460E460022284BFCF7AC
:10371000E5FF03D84FF0FF30014607E00022254BBC
:1037200020463146FCF73AFEFCF7C0FF102409E0C2
:10373000002C0ADB0A220023FCF7C8FD039B303271
:103740001A55641E50EA0102F2D1641C039AC4F1B6
:1037500011031444119A012A03D0012208430DD108
:103760000AE0084304D000204FF0110B119072E7DB
:10377000A3EB0B056D1E0DE05B4504DD4FF0000271
:1037800005F1010504E003DA4FF00002A5F101059F
:10379000002AECD002981199C0E90231C0E9004535
:1037A00079E70000000014400000F03F3000000006
:1037B0000000F0430000E03F2DE9FF4F95B09B462D
:1037C0008946064600250FE2252877D100242746A2
:1037D000F84A0121059400E0044316F8013F203B1C
:1037E00001FA03F01042F7D130782A2811D06FF097
:1037F0002F033078A0F13002092A16D8059A44F038
:10380000020402EB820203EB42021044761C059094
:10381000EFE759F8042B0592002A03DA504244F4EA
:103820000054059044F00204761C30782E2816D1FE
:1038300016F8010F44F004042A280DD06FF02F026F
:103840003078A0F13003092B09D807EB870302EB8E
:103850004303C718761CF3E759F8047B761C3078CD
:103860006C280FD006DC4C2817D068280DD06A28A9
:1038700014D104E0742810D07A280FD10DE044F45C
:1038800000140AE044F4801401E044F44014727817
:10389000824202D104F58014761C761C30786628AA
:1038A0000BD013DC582877D009DC002875D04528C8
:1038B000F6D04628F4D047281AD19DE118E06328B5
:1038C00035D0642879D0652812D195E1702873D05D
:1038D00008DC6728F1D069286FD06E280DD06F28DA
:1038E00006D1B5E073282CD0752875D0782874D00F
:1038F0005A46179990476D1C75E1C4F3025002288F
:1039000009D003280DD0D9F8001004280DD00D607F
:1039100009F1040967E1D9F80010EA17C1E900527A
:10392000F6E7D9F800100D80F2E70D70F0E719F80E
:10393000041B8DF8001000208DF80100EA460120DC
:1039400003E059F804AB4FF0FF3061074FF000017E
:1039500002D40DE008F101018846B9420FDA804532
:10396000F8DB1AF808100029F4D108E008F1010189
:1039700088468142FADB1AF808100029F6D105982A
:103980005B46A0EB080721463846179A00F094FAE8
:10399000284400EB080507E04DE029E10DE01AF8A6
:1039A000010B5A4617999047B8F10108F7D25B46C8
:1039B00021463846179A13E142E00A220092C4F3E6
:1039C00002524FF0000A022A08D059F804CB032A09
:1039D0004FEAEC710AD00DE029E02AE009F1070175
:1039E00021F00702F2E802C1914609E00FFA8CFCCF
:1039F0004FEAEC71042A03D14FFA8CFC4FEAEC71C8
:103A0000002907DA0A460021DCF1000C61EB020113
:103A10002D2202E0220504D52B228DF8042001225C
:103A200003E0E20701D02022F7E7904659E00A219F
:103A300002E010220DE010214FF0000A00910BE08F
:103A400010224FF0000A44F004040827009203E01B
:103A500008224FF0000A0092C4F30252022A05D055
:103A600059F804CB0021032A08D009E009F1070125
:103A700021F00702F2E802C1914605E01FFA8CFC32
:103A8000042A01D10CF0FF0C4FF00008220728D5C2
:103A9000702806D0009B83F0100353EA0A0305D078
:103AA0000EE040228DF80420012208E05CEA0102C9
:103AB00006D030228DF804208DF8050002229046B1
:103AC000009B83F0080353EA0A030AD15CEA01026F
:103AD00001D1620705D530228DF804204FF001088E
:103AE0007F1E582804D034A003900EA802900DE049
:103AF00036A0F9E753466046009AFCF7E7FB844698
:103B00000398825C0298401E029002705CEA0100F9
:103B1000F0D1029806A9081A00F1200A600702D520
:103B200024F4803400E00127574502DDA7EB0A00AA
:103B300000E0002000EB0A01009005984144401A83
:103B40000590E00306D45B462146179A059800F0DD
:103B5000B3F90544002706E001A85A46C05D17994D
:103B600090476D1C7F1C4745F6DBE0030CD55B4698
:103B70002146179A059800F09FF9054404E030208B
:103B80005A46179990476D1C0099481E00900029CD
:103B9000F5DC08E0029802995A460078491C029127
:103BA000179990476D1CBAF10001AAF1010AF1DCE6
:103BB00065E10000092801003031323334353637F1
:103BC0003839616263646566000000003031323369
:103BD0003435363738394142434445460000000009
:103BE00000F058F90544761C307800287FF4ECADDD
:103BF00019B02846BDE8F08F620700D4062709F106
:103C0000070222F0070CFCE80223E14603F000481B
:103C10005FEA080C02D00FF2702C0DE05FEA045C42
:103C200002D50FF2682C07E05FEAC47C02D00FF2E5
:103C3000602C01E0AFF2700C4FF0FF3823F000432E
:103C4000CDF850C065280CD006DC452809D04628A0
:103C50001DD047283DD13DE0662818D067287ED189
:103C600038E00021112F01DB112000E0781CCDE9A4
:103C7000000106A90EA8FFF7DDFCDDE90F010E9A91
:103C800003910021009207F1010A04914DE04FF0E9
:103C900000400097CDE9011006A90EA8FFF7CAFC65
:103CA000DDE90F0203920E9B11990022DDF80CA0B2
:103CB0000093049211B9791C00EB010AB7EB0A00DA
:103CC00004D4C0F1FF3007F1010A0490AAEB070009
:103CD000019044E0012F00DA01270021112F01DDBE
:103CE000112000E03846CDE9000106A90EA8FFF733
:103CF000A1FCDDE90F010E9A0391002104910092CD
:103D0000BA4621070CD40399514500DA8A46BAF124
:103D1000010F05DD009AAAF10101515C302908D09C
:103D2000B84202DA10F1040F06DA0121CDE90110E0
:103D300015E0AAF10101E9E7002805DC0499014436
:103D40000491AAEB000102E0411C514500DD8A46C6
:103D50000499401A401C01904FF000400290200747
:103D600004D40198504501DBCDF8048000208DF883
:103D70004F0002980DF14F07B0F1004F25D02B20D6
:103D80000E9002984FF0020800280CDA4042029090
:103D90002D200E9007E00A210298FCF781FA3031BD
:103DA000029007F8011DB8F10001A8F10108F2DC4A
:103DB00002980028EFD1791E0E980870307800F034
:103DC000200040F0450007F8020D12A8C01B00F1CA
:103DD00007081498007800B1012000EB0A0101984F
:103DE00001EBE07105984144401A401E0590E00344
:103DF00006D45B462146179A059800F05DF8054405
:103E00001498007818B15A46179990476D1CE00332
:103E100024D55B462146179A059800F04DF80544D5
:103E20001CE00498002807DBDDE90301884203DD7C
:103E30000098405C179901E0179930205A46904746
:103E4000049805F10105401C04900198401E019062
:103E500004D12E205A46179990476D1CBAF10001E3
:103E6000AAF1010ADDDC05E017F8010B5A461799A3
:103E700090476D1CB8F10001A8F10108F4DC5B4625
:103E80002146179A0598ABE62D0000002B00000094
:103E9000200000002DE9F041044600251E4617468B
:103EA000880404D405E039462020B0476D1C641E08
:103EB000F9D52846BDE8F0812DE9F04104460025FA
:103EC0001E469046C80301D5302700E0202788040D
:103ED00004D505E041463846B0476D1C641EF9D54F
:103EE0002846BDE8F081000013B50C464FF47A7304
:103EF000012269460648FEF735FA00BF044800680B
:103F00000068C0F380100028F8D000981CBD0000A5
:103F1000B44800201CB5FFF74FF84820FCF7B8FC68
:103F20004FF4E130FFF72AFAFEF78AFAFFF7A0F81C
:103F3000FCF736FDFCF710FEFEF754FFFEF77AFBA8
:103F4000FEF79AFB00200D4940238022CDE90010A6
:103F50000146FEF7B7FE4FF47A70FCF7A7FC00208D
:103F60003F237F2201460090FEF73EFB05E0FCF771
:103F70008FFDFCF767FEFEF7E5FAF8E7681600200C
:103F80000000000000000000010203040607080909
:103F90000000000001020304B83F000800000020F8
:103FA000B43700002C0800089C450008B4370020F6
:103FB0009C1500002436000820050024F40001129E
:103FC000100432010A00049F0000FF01300E000FB0
:103FD000F8007003F007FFE007003F1052F010D226
:103FE0000F105120D20720F110D2E030D110021E64
:103FF0000310C2C050B00401C08090E28110021CC6
:104000008010C3808140021EC010D20120220350C4
:1040100063060140021EE010E2071011E082E0207A
:10402000B00AF0078078000006000010820E102011
:10403000040F007C1D63001F104009807E00003FBC
:1040400080003F10500BF80F807F80007FC0007F02
:1040500010080C321F807FE001FFF001FF007F029B
:1040600032F1067287101006E0003FC3F71043805C
:104070000710100780001E0000F0815A0F31200445
:10408000003E061043878F302006C2047E3E30106B
:104090005143200580000E22108140231C00205235
:1040A000C0402004E2047C1070043C0200606C06F6
:1040B0003E30F1843C2D03113011105005C07C605E
:1040C0001830500A663C0020F100FC6038706C0823
:1040D000221E0020C0101C5D036C0986211C0A23CF
:1040E000C03C0C6D030C0B82CF773FFE3FC3FF1C1F
:1040F00062105E030110014218012109110EC00572
:1041000012362448202008242424FE484848043D30
:104110004E042C0D38545450301C14145454381080
:104120005B043C0C44A4A8A8A8541A2A2A2A446375
:104130000412302D1C08506EA4948889767104A056
:1041400005606020C06E30060204080810012009D6
:1041500008080402000040200A21014C051010202C
:1041600040B004300610D63838D65C511020041008
:1041700010FE32D1B9A15B02117FD923606071308A
:104180000501020204743004202040604004182419
:1041900042014324186F427090300410107C371293
:1041A0003C1B113260051020427E103C09041804AB
:1041B00002024244384F05300C040C1424244444B9
:1041C0007E04041E7B80077E404040586420231CF0
:1041D0002410816060047E4244F371603224857350
:1041E0003C00908407261A0202243893810671103D
:1041F00054051818083042152A3720103F4DD605AF
:1042000052FE0431F7411B31256170266276615000
:10421000100538445AAA0162B4B0300C10101828A6
:1042200028243C444242E74D1006F8444444780EAA
:1042300030044244F85020053E4242800161E0577C
:10424000F844405120B00CFE42484878484840426B
:1042500042FE1040044040E0801344444050048E2D
:1042600084444022E73C227E054170C77C10807365
:104270003E08011388F070300CEE444850705048EE
:10428000484444EE4053E04001517013EE6C01226B
:10429000540132D620500CC7626252524A4A4A46F2
:1042A00046E2F042820151C022FC80737C40A05162
:1042B000207406B2CA4C380600216F6742E3001B27
:1042C000402001113541F06A923091D03952623C60
:1042D000E05407442424282818F013D6920114042B
:1042E000AAAA6C5751301F242474035724247090B9
:1042F00006EE44442828502B7E84AF1C0620204222
:1043000042FC7E03931E100129712C04404020338F
:10431000031A0492840602010100782E1F0808B8CF
:10432000050005180814220001000512FF006010A6
:104330001834083C421E2242423F405BC040C07FCE
:1043400064580404171C22753F221C4F081206797A
:10435000212E900442261B401D060359D09C060FB7
:104360001110107E5003394415FD47403C22216056
:104370008B5C62001A30D69E7080031E0C3A0533A7
:104380001C04015344789058064E4850684800DA9F
:104390007030299423F6490172ED1092DC606D743F
:1043A000036D7003212042D8E05902156631D050C8
:1043B000041A0207501004EE32200186F839201347
:1043C000B5B10100210811080910092001007FF88A
:1043D000000802523F0821101FC7B0C9041C051075
:1043E0000820FF8D0350093E08224822483E480617
:1043F000200A0822082A282410D7AA551C18202091
:10440000FDFC4020504093FEFC40108011FC1C0439
:10441000F08850501007051C051010CBD91005105E
:104420001B4017FC104003F80248F24813F810E054
:1044300011501248144410402800475A1FB6C8CAE9
:1044400009200A803FFE222022203FFC061C132365
:10445000E020002FF02410422041C08630380EB0FA
:10446000D9B906200CFE0100020004003FF8200824
:10447000026108410A1008B7D600400440040F1D2D
:10448000150520080840049FE20420022121100E97
:10449000102021404080D6B5084008400F88300EDB
:1044A000104033F8320853F8920813F812041C092C
:1044B00012081FFE1000C4E34E0612FE03000B3567
:1044C00073FFFCF3FFFCF7FFFD0001314A4DBA0713
:1044D00012BF040005798F9FFF00010DFF280B0D0F
:1044E000FF280B0DFF280B0DFF280B0DFF280B0DD0
:1044F000FF280B0DFF280B0DFF280B0DFF280B0DC0
:10450000FF280B0DFF280B0D27300B029FFF010D1D
:10451000FF2C0B0DFF2C0B0DFF2C0B0DFF2C0B0D8F
:10452000FF2C0B0DFF2C0B0DFF2C0B0DFF2C0B0D7F
:10453000FF2C0B0DFF2C0B0D66180B029FFF010DBE
:10454000FF140B0DFF140B0DFF140B0DFF140B0DBF
:10455000FF140B0DFF140B0DFF140B0DFF140B0DAF
:10456000FF140B0DFF140B0EFF001D0B0DFF1D0B99
:104570000DFF1D0B0DFF1D0B0DFF1D0B0DFF1D0B6B
:104580000DFF1D0B0DFF1D0B0DFF1D0B0DFF1D0B5B
:0C4590000DFF1D0B0D7E1D0B0000000038
:04000005080000ED02
:00000001FF
